:100000000C9463000C948B000C948B000C948B006C
:100010000C948B000C948B000C948B000C948B0034
:100020000C948B000C948B000C948B000C948B0024
:100030000C948B000C948B000C948B000C948B0014
:100040000C940B020C948B000C94D9010C94B3010A
:100050000C948B000C948B000C948B000C948B00F4
:100060000C948B000C948B000000000025002800ED
:100070002B0000000000240027002A0000000000E0
:1000800023002600290004040404040404040202DA
:100090000202020203030303030301020408102007
:1000A0004080010204081020010204081020000012
:1000B0000008000201000003040700000000000027
:1000C00000009E02440411241FBECFEFD8E0DEBF23
:1000D000CDBF22E0A6E5B1E001C01D92AD31B2076F
:1000E000E1F711E0A0E0B1E0E4E2FDE002C005903C
:1000F0000D92A635B107D9F710E0C2E6D0E004C0F2
:100100002197FE010E948D04C136D107C9F70E94D4
:10011000E6020C9485060C940000AF92BF92CF9239
:10012000DF92EF92FF920F931F93CF93DF936C01B7
:100130007B018B01040F151FEB015E01AE18BF0898
:10014000C017D10759F06991D601ED91FC9101904A
:10015000F081E02DC6010995892B79F7C501DF9162
:10016000CF911F910F91FF90EF90DF90CF90BF90B4
:10017000AF900895CF93DF93FC0144815581608156
:10018000718183E691E00E948D00EC0142E050E035
:100190006AE171E083E691E00E948D008C0F9D1F63
:1001A000DF91CF910895FC01538D448D252F30E0D0
:1001B000842F90E0821B930B541710F0CF96089574
:1001C00001970895FC01918D828D981761F0A28DA1
:1001D000AE0FBF2FB11D5D968C91928D9F5F9F7367
:1001E000928F90E008958FEF9FEF0895FC01918D1D
:1001F000828D981731F0828DE80FF11D858D90E08A
:1002000008958FEF9FEF0895FC01918D228D892F26
:1002100090E0805C9F4F821B91098F73992708950E
:1002200083E691E00E94040121E0892B09F420E09B
:10023000822F089580E090E0892B29F00E94100120
:1002400081110C9400000895FC01A48DA80FB92F12
:10025000B11DA35ABF4F2C91848D90E001968F73EE
:100260009927848FA689B7892C93A089B1898C910D
:10027000837080648C93938D848D981306C002885C
:10028000F389E02D80818F7D80830895EF92FF9226
:100290000F931F93CF93DF93EC0181E0888F9B8DA9
:1002A0008C8D98131AC0E889F989808185FF15C063
:1002B0009FB7F894EE89FF896083E889F989808186
:1002C0008370806480839FBF81E090E0DF91CF9155
:1002D0001F910F91FF90EF900895F62E0B8D10E077
:1002E0000F5F1F4F0F731127E02E8C8D8E110CC0E6
:1002F0000FB607FCFACFE889F989808185FFF5CF31
:10030000CE010E942401F1CFEB8DEC0FFD2FF11DEA
:10031000E35AFF4FF0829FB7F8940B8FEA89FB896D
:1003200080818062CFCFCF93DF93EC01888D8823CB
:10033000B9F0AA89BB89E889F9898C9185FD03C048
:10034000808186FD0DC00FB607FCF7CF8C9185FF2D
:10035000F2CF808185FFEDCFCE010E942401E9CF4D
:10036000DF91CF9108951F920F920FB60F92112433
:100370002F933F934F935F936F937F938F939F93AD
:10038000AF93BF93EF93FF9383E691E00E94240124
:10039000FF91EF91BF91AF919F918F917F916F915D
:1003A0005F914F913F912F910F900FBE0F901F9033
:1003B00018951F920F920FB60F9211242F938F93BF
:1003C0009F93EF93FF93E0917301F091740180810B
:1003D000E0917901F0917A0182FD1BC090818091BA
:1003E0007C018F5F8F7320917D01821741F0E09136
:1003F0007C01F0E0ED59FE4F958F80937C01FF91D9
:10040000EF919F918F912F910F900FBE0F901F90A2
:1004100018958081F4CF1F920F920FB60F9211247E
:100420002F933F938F939F93AF93BF9380915B01E3
:1004300090915C01A0915D01B0915E0130915A01F3
:1004400023E0230F2D3758F50196A11DB11D2093F0
:100450005A0180935B0190935C01A0935D01B0937E
:100460005E018091560190915701A0915801B09181
:1004700059010196A11DB11D80935601909357011A
:10048000A0935801B0935901BF91AF919F918F9163
:100490003F912F910F900FBE0F901F90189526E857
:1004A000230F0296A11DB11DD2CFEF92FF920F93A1
:1004B0001F93CF93DF93EC017B01198218821B827B
:1004C0001A821D821C82FB0101900020E9F73197FE
:1004D0008F01061B170BB8016F5F7F4F90E080E024
:1004E0000E94B8050097B9F0998388831B830A831B
:1004F0002C813D81232B11F4FC0110821D830C8380
:10050000B70188819981DF91CF911F910F91FF9061
:10051000EF900C947E0688819981009711F00E94DB
:100520002F05198218821D821C821B821A82DF917C
:10053000CF911F910F91FF90EF900895E3E6F1E0C6
:100540001382128288EE93E0A0E0B0E0848395836A
:10055000A683B7838CE091E09183808385EC90E063
:100560009587848784EC90E09787868780EC90E07D
:10057000918B808B81EC90E0938B828B82EC90E06E
:10058000958B848B86EC90E0978B868B118E128EE8
:10059000138E148E80910101809318026DE171E039
:1005A00080E092E00E94550268E271E086E092E00D
:1005B0000E94550267E371E08CE092E00E945502D0
:1005C00069E471E082E192E00C945502789484B57C
:1005D000826084BD84B5816084BD85B5826085BD3F
:1005E00085B5816085BD80916E00816080936E00CD
:1005F00010928100809181008260809381008091BF
:10060000810081608093810080918000816080936F
:1006100080008091B10084608093B1008091B0002F
:1006200081608093B00080917A00846080937A002A
:1006300080917A00826080937A0080917A00816054
:1006400080937A0080917A00806880937A0010927B
:10065000C100E0917301F091740182E08083E09128
:100660006F01F09170011082E0917101F0917201BF
:1006700087E6808310927B01E0917701F091780109
:1006800086E08083E0917501F09176018081806140
:100690008083E0917501F09176018081886080838C
:1006A000E0917501F0917601808180688083E0910E
:1006B0007501F091760180818F7D8083CCE9D0E057
:1006C000FE01249108E810E0F80184918823C9F024
:1006D00090E0880F991FFC01EE58FF4FA591B4914F
:1006E000FC01E859FF4F459154919FB7F8943C9114
:1006F000822F809583238C93FA018081282B20837D
:100700009FBF90EBC92E90E0D92E20E0E22E20E092
:10071000F22E2FB7F89480915B0190915C01A0912B
:100720005D01B0915E012FBF40915F01509160016A
:100730006091610170916201841B950BA60BB70B50
:1007400087399105A105B10508F45CC0F6018491D3
:10075000FE019491F8012491222309F481C0882399
:1007600059F0833009F465C008F058C0813009F4AD
:1007700066C0823009F467C0E22FF0E0EE0FFF1F81
:10078000E458FF4FA591B4918C91982331E020E07B
:1007900009F430E0832F922F282F2170209301013C
:1007A00030911802231771F1892BA9F4809100016F
:1007B0008F5F843008F057C0809300018091000162
:1007C000813009F458C008F451C0823009F456C091
:1007D000833009F456C080910101809318022FB72D
:1007E000F89480915B0190915C01A0915D01B091C2
:1007F0005E012FBF80935F0190936001A093610120
:10080000B0936201E114F10409F483CF0E94100156
:10081000882309F47ECF0E9400007BCF8730B1F09F
:100820008830D1F0843009F0A7CF809180008F7D8F
:1008300003C0809180008F77809380009DCF84B526
:100840008F7784BD99CF84B58F7DFBCF8091B00029
:100850008F778093B00090CF8091B0008F7DF9CFDB
:1008600090E080E099CF10920001A8CF80E092E064
:100870000E94BA00B0CF86E092E0FACF8CE092E01E
:10088000F7CF82E192E0F4CFCF93DF93C8E1D2E0DB
:10089000269788819981009711F00E942F0582E0A8
:1008A000C030D807A9F7DF91CF9108952F923F92DA
:1008B0004F925F926F927F928F929F92AF92BF9270
:1008C000CF92DF92EF92FF920F931F93CF93DF931C
:1008D000CDB7DEB7CA1BDB0B0FB6F894DEBF0FBE79
:1008E000CDBF09942A88398848885F846E847D84C6
:1008F0008C849B84AA84B984C884DF80EE80FD80C8
:100900000C811B81AA81B981CE0FD11D0FB6F8943D
:10091000DEBF0FBECDBFED010895EE0FFF1F0590A6
:10092000F491E02D09940F931F93CF93DF938230BE
:10093000910510F482E090E0E0911B02F0911C021E
:1009400030E020E0B0E0A0E0309799F421153105C7
:1009500009F44AC0281B390B24303105D8F58A81A7
:100960009B816115710589F1FB0193838283FE01EF
:1009700011C0408151810281138148175907E0F06D
:100980004817590799F4109761F012960C93129733
:1009900013961C933296CF01DF91CF911F910F9147
:1009A000089500931B0210931C02F4CF211531050A
:1009B00051F04217530738F0A901DB019A01BD013C
:1009C000DF01F801C1CFEF01F9CF90931C028093B2
:1009D0001B02CDCFFE01E20FF31F819391932250B2
:1009E000310939832883D7CF2091190230911A0217
:1009F000232B41F4209104013091050130931A0218
:100A00002093190220910201309103012115310533
:100A100041F42DB73EB74091060150910701241BC8
:100A2000350BE0911902F0911A02E217F307A0F4D6
:100A30002E1B3F0B2817390778F0AC014E5F5F4F34
:100A40002417350748F04E0F5F1F50931A0240934A
:100A50001902819391939FCFF0E0E0E09CCFCF9378
:100A6000DF930097E9F0FC01329713821282A09184
:100A70001B02B0911C02ED0130E020E01097A1F4C0
:100A800020813181820F931F2091190230911A0227
:100A90002817390709F061C0F0931A02E093190290
:100AA000DF91CF910895EA01CE17DF07E8F54A817B
:100AB0005B819E0141155105B1F7E901FB83EA8392
:100AC00049915991C40FD51FEC17FD0761F480813E
:100AD00091810296840F951FE90199838883828111
:100AE00093819B838A83F0E0E0E012968D919C9144
:100AF00013970097B9F52D913C911197CD0102966E
:100B0000820F931F2091190230911A02281739077A
:100B100039F6309751F510921C0210921B02B093D7
:100B20001A02A0931902BCCFD383C28340815181A2
:100B3000840F951FC817D90761F44E5F5F4F8881F6
:100B40009981480F591F518340838A819B819383E8
:100B500082832115310509F0B0CFF0931C02E09398
:100B60001B029ECFFD01DC01C0CF13821282D7CFC2
:100B7000B0E0A0E0EEEBF5E00C9458048C01009797
:100B800051F4CB010E9493048C01C801CDB7DEB7AC
:100B9000E0E10C947404FC01E60FF71F9C01225065
:100BA0003109E217F30708F49DC0D901CD91DC911A
:100BB0001197C617D70798F0C530D10530F3CE018D
:100BC00004978617970708F3C61BD70B2297C19384
:100BD000D1936D937C93CF010E942F05D6CF5B01FB
:100BE000AC1ABD0A4C018C0E9D1EA0911B02B09147
:100BF0001C02512C412CF12CE12C109731F58091E5
:100C0000190290911A028815990509F05CC04616E0
:100C1000570608F058C08091020190910301009797
:100C200041F48DB79EB74091060150910701841B96
:100C3000950BE817F90708F055C0F0931A02E093F6
:100C40001902F90171836083A0CF8D919C91119756
:100C500012966C90129713967C901397A815B9056D
:100C600059F56C0142E0C40ED11CCA14DB0420F11A
:100C7000AC014A195B09DA011296159780F062827D
:100C8000738251834083D9016D937C93E114F10405
:100C900071F0D7011396FC93EE93129776CF2296BC
:100CA0008C0F9D1FF90191838083F301EFCFF093A7
:100CB0001C02E0931B0269CF4816590608F42C0168
:100CC0007D01D3019ACFCB010E9493047C01009750
:100CD00049F0AE01B8010E947506C8010E942F05B7
:100CE000870153CF10E000E050CFFB01DC0102C0D0
:100CF00001900D9241505040D8F70895FB01DC015E
:100D000001900D920020E1F7089510E0C2E6D0E0D6
:100D100004C0FE010E948D042196C336D107C9F795
:040D2000F894FFCF75
:100D2400030100001D0280000000000046018D0048
:100D3400D30093010401E200F6000D0A004D656E34
:100D440075205574616D61004D656E7520312053B9
:100D5400657474696E67004D656E75203220496E46
:100D64007075742044617461004D656E7520332084
:060D7400457869740000DF
:00000001FF
