:100000000C9462000C948A000C948A000C948A0070
:100010000C948A000C948A000C948A000C948A0038
:100020000C948A000C948A000C948A000C948A0028
:100030000C948A000C948A000C948A000C948A0018
:100040000C940D020C948A000C947D020C945702BF
:100050000C948A000C948A000C948A000C948A00F8
:100060000C948A000C948A000000000025002800EF
:100070002B0000000000240027002A0000000000E0
:1000800023002600290004040404040404040202DA
:100090000202020203030303030301020408102007
:1000A0004080010204081020010204081020000012
:1000B0000008000201000003040700000000000027
:1000C0000000B60311241FBECFEFD8E0DEBFCDBFC6
:1000D00011E0A0E0B1E0E6EDF7E002C005900D927E
:1000E000AC33B107D9F721E0ACE3B1E001C01D9218
:1000F000A43EB207E1F710E0C2E6D0E004C02197C9
:10010000FE010E94E303C136D107C9F70E94AF0286
:100110000C94E9030C940000AF92BF92CF92DF924F
:10012000EF92FF920F931F93CF93DF936C017B01AC
:100130008B01040F151FEB015E01AE18BF08C0173D
:10014000D10759F06991D601ED91FC910190F081B0
:10015000E02DC6010995892B79F7C501DF91CF9173
:100160001F910F91FF90EF90DF90CF90BF90AF90D5
:100170000895FC01538D448D252F30E0842F90E0AD
:10018000821B930B541710F0CF9608950197089592
:10019000FC01918D828D981761F0A28DAE0FBF2F5B
:1001A000B11D5D968C91928D9F5F9F73928F90E0B1
:1001B00008958FEF9FEF0895FC01918D828D981720
:1001C00031F0828DE80FF11D858D90E008958FEF5D
:1001D0009FEF0895FC01918D228D892F90E0805C26
:1001E0009F4F821B91098F739927089587E491E0AF
:1001F0000E94EA0021E0892B09F420E0822F089573
:1002000080E090E0892B29F00E94F60081110C9487
:1002100000000895FC01A48DA80FB92FB11DA35AA9
:10022000BF4F2C91848D90E001968F739927848F16
:10023000A689B7892C93A089B1898C918370806439
:100240008C93938D848D981306C00288F389E02DDA
:1002500080818F7D80830895EF92FF920F931F938B
:10026000CF93DF93EC0181E0888F9B8D8C8D981369
:100270001AC0E889F989808185FF15C09FB7F89475
:10028000EE89FF896083E889F989808183708064C1
:1002900080839FBF81E090E0DF91CF911F910F910C
:1002A000FF90EF900895F62E0B8D10E00F5F1F4F1B
:1002B0000F731127E02E8C8D8E110CC00FB607FC2A
:1002C000FACFE889F989808185FFF5CFCE010E94B8
:1002D0000A01F1CFEB8DEC0FFD2FF11DE35AFF4F1B
:1002E000F0829FB7F8940B8FEA89FB898081806246
:1002F000CFCFCF93DF93EC01888D8823B9F0AA8903
:10030000BB89E889F9898C9185FD03C0808186FDD0
:100310000DC00FB607FCF7CF8C9185FFF2CF80811F
:1003200085FFEDCFCE010E940A01E9CFDF91CF9189
:100330000895833081F028F4813099F08230A9F05B
:1003400008958730A9F08830C9F08430B1F48091E5
:1003500080008F7D03C0809180008F778093800024
:10036000089584B58F7784BD089584B58F7DFBCFC4
:100370008091B0008F778093B00008958091B00095
:100380008F7DF9CF1F93CF93DF93282F30E0F901B2
:10039000E255FF4F8491F901E656FF4FD491F901E0
:1003A000EA57FF4FC491CC23A9F0162F81110E9468
:1003B0009901EC2FF0E0EE0FFF1FE859FF4FA591D8
:1003C000B4918FB7F894EC91111108C0D095DE2349
:1003D000DC938FBFDF91CF911F910895DE2BF8CF73
:1003E000CF93DF93FC0101900020E9F73197AF0133
:1003F000481B590BBC0187E491E00E948C00EC0182
:1004000042E050E062E171E087E491E00E948C00FC
:100410008C0F9D1FDF91CF9108951F920F920FB601
:100420000F9211242F933F938F939F93AF93BF937A
:100430008091430190914401A0914501B091460102
:100440003091420123E0230F2D3758F50196A11D6D
:10045000B11D209342018093430190934401A093E6
:100460004501B093460180913E0190913F01A091DA
:100470004001B09141010196A11DB11D80933E0143
:1004800090933F01A0934001B0934101BF91AF9180
:100490009F918F913F912F910F900FBE0F901F90C2
:1004A000189526E8230F0296A11DB11DD2CF1F92E9
:1004B0000F920FB60F9211242F933F934F935F9398
:1004C0006F937F938F939F93AF93BF93EF93FF931C
:1004D00087E491E00E940A01FF91EF91BF91AF91F3
:1004E0009F918F917F916F915F914F913F912F914C
:1004F0000F900FBE0F901F9018951F920F920FB67E
:100500000F9211242F938F939F93EF93FF93E0917A
:100510005701F09158018081E0915D01F0915E01F9
:1005200082FD1BC09081809160018F5F8F7320914D
:100530006101821741F0E0916001F0E0E95BFE4F5C
:10054000958F80936001FF91EF919F918F912F91F3
:100550000F900FBE0F901F9018958081F4CF789464
:1005600084B5826084BD84B5816084BD85B58260B8
:1005700085BD85B5816085BD80916E008160809369
:100580006E001092810080918100826080938100D2
:1005900080918100816080938100809180008160E2
:1005A000809380008091B10084608093B10080913D
:1005B000B00081608093B00080917A008460809365
:1005C0007A0080917A00826080937A0080917A002C
:1005D000816080937A0080917A00806880937A00AD
:1005E0001092C100E7EAF0E02491E3E9F0E08491A1
:1005F000882399F090E0880F991FFC01EE58FF4F77
:10060000A591B491FC01E859FF4F859194918FB762
:10061000F894EC91E22BEC938FBFC8EAD0E0FE0196
:10062000249104E910E0F80184918823C9F090E056
:10063000880F991FFC01EE58FF4FA591B491FC0162
:10064000E859FF4F459154913FB7F8949C91822F00
:10065000809598239C93FA019081892380833FBFE2
:10066000E0915701F091580182E08083E0915301BD
:10067000F09154011082E0915501F09156018FECF8
:10068000808310925F01E0915B01F0915C0186E054
:100690008083E0915901F0915A01808180618083CB
:1006A000E0915901F0915A01808188608083E09146
:1006B0005901F0915A01808180688083E09159014D
:1006C000F0915A0180818F7D80839CEBE92E90E030
:1006D000F92E20E0C22E20E0D22E88248394912C83
:1006E000F7018491FE01B490F801A490AA2059F179
:1006F00081110E949901EA2DF0E0EE0FFF1FE458EE
:10070000FF4FA591B4918C91B822E9F0A0903C01E3
:10071000B0903D0161E08DE00E94C201AA94AB2837
:1007200041F485E191E00E94F00110923D011092A8
:100730003C01C114D104A1F20E94F600882381F289
:100740000E940000CDCF60E08DE00E94C201809148
:100750003C0190913D01892B61F789E291E00E9473
:10076000F00190923D0180923C01E3CFE7E4F1E09B
:100770001382128288EE93E0A0E0B0E08483958338
:10078000A683B78384E091E09183808385EC90E039
:100790009587848784EC90E09787868780EC90E04B
:1007A000918B808B81EC90E0938B828B82EC90E03C
:1007B000958B848B86EC90E0978B868B118E128EB6
:1007C000138E148E0895EE0FFF1F0590F491E02D07
:0607D0000994F894FFCF2C
:1007D600000000002C018C00B9007901EA00C80075
:1007E600DC000D0A00476572616B616E205465720C
:1007F600646574656B73692100546964616B20419B
:0C080600646120476572616B616E210027
:00000001FF
