:020000040000FA
:100000000C9462000C948A000C948A000C948A0070
:100010000C948A000C948A000C948A000C948A0038
:100020000C948A000C948A000C948A000C948A0028
:100030000C948A000C948A000C948A000C948A0018
:100040000C940E020C948A000C94DC010C94B60102
:100050000C948A000C948A000C948A000C948A00F8
:100060000C948A000C948A000000000025002800EF
:100070002B0000000000240027002A0000000000E0
:1000800023002600290004040404040404040202DA
:100090000202020203030303030301020408102007
:1000A0004080010204081020010204081020000012
:1000B0000008000201000003040700000000000027
:1000C0000000580211241FBECFEFD8E0DEBFCDBF25
:1000D00011E0A0E0B1E0E6EBF7E002C005900D9280
:1000E000AE31B107D9F721E0AEE1B1E001C01D9218
:1000F000AA3CB207E1F710E0C2E6D0E004C02197C5
:10010000FE010E94D303C136D107C9F70E948B02BA
:100110000C94D9030C940000AF92BF92CF92DF925F
:10012000EF92FF920F931F93CF93DF936C017B01AC
:100130008B01040F151FEB015E01AE18BF08C0173D
:10014000D10759F06991D601ED91FC910190F081B0
:10015000E02DC6010995892B79F7C501DF91CF9173
:100160001F910F91FF90EF90DF90CF90BF90AF90D5
:100170000895FC01538D448D252F30E0842F90E0AD
:10018000821B930B541710F0CF9608950197089592
:10019000FC01918D828D981761F0A28DAE0FBF2F5B
:1001A000B11D5D968C91928D9F5F9F73928F90E0B1
:1001B00008958FEF9FEF0895FC01918D828D981720
:1001C00031F0828DE80FF11D858D90E008958FEF5D
:1001D0009FEF0895FC01918D228D892F90E0805C26
:1001E0009F4F821B91098F73992708958BE291E0AD
:1001F0000E94EA0021E0892B09F420E0822F089573
:1002000080E090E0892B29F00E94F60081110C9487
:1002100000000895FC01A48DA80FB92FB11DA35AA9
:10022000BF4F2C91848D90E001968F739927848F16
:10023000A689B7892C93A089B1898C918370806439
:100240008C93938D848D981306C00288F389E02DDA
:1002500080818F7D80830895EF92FF920F931F938B
:10026000CF93DF93EC0181E0888F9B8D8C8D981369
:100270001AC0E889F989808185FF15C09FB7F89475
:10028000EE89FF896083E889F989808183708064C1
:1002900080839FBF81E090E0DF91CF911F910F910C
:1002A000FF90EF900895F62E0B8D10E00F5F1F4F1B
:1002B0000F731127E02E8C8D8E110CC00FB607FC2A
:1002C000FACFE889F989808185FFF5CFCE010E94B8
:1002D0000A01F1CFEB8DEC0FFD2FF11DE35AFF4F1B
:1002E000F0829FB7F8940B8FEA89FB898081806246
:1002F000CFCFCF93DF93EC01888D8823B9F0AA8903
:10030000BB89E889F9898C9185FD03C0808186FDD0
:100310000DC00FB607FCF7CF8C9185FFF2CF80811F
:1003200085FFEDCFCE010E940A01E9CFDF91CF9189
:100330000895CF93DF93FC0101900020E9F73197F6
:10034000AF01481B590BBC018BE291E00E948C006D
:10035000EC0142E050E063E171E08BE291E00E9449
:100360008C008C0F9D1FDF91CF9108951F920F92EB
:100370000FB60F9211242F933F934F935F936F9378
:100380007F938F939F93AF93BF93EF93FF938BE2F2
:1003900091E00E940A01FF91EF91BF91AF919F916F
:1003A0008F917F916F915F914F913F912F910F901E
:1003B0000FBE0F901F9018951F920F920FB60F92BD
:1003C00011242F938F939F93EF93FF93E0913B0121
:1003D000F0913C018081E0914101F091420182FD68
:1003E0001BC09081809144018F5F8F7320914501E4
:1003F000821741F0E0914401F0E0E55DFE4F958FFA
:1004000080934401FF91EF919F918F912F910F90D5
:100410000FBE0F901F9018958081F4CF1F920F92FE
:100420000FB60F9211242F933F938F939F93AF9307
:10043000BF938091230190912401A0912501B09157
:1004400026013091220123E0230F2D3758F5019624
:10045000A11DB11D209322018093230190932401BB
:10046000A0932501B093260180911E0190911F0158
:10047000A0912001B09121010196A11DB11D809391
:100480001E0190931F01A0932001B0932101BF9101
:10049000AF919F918F913F912F910F900FBE0F9031
:1004A0001F90189526E8230F0296A11DB11DD2CFEB
:1004B000EBE2F1E01382128288EE93E0A0E0B0E07C
:1004C00084839583A683B78385E091E091838083BD
:1004D00085EC90E09587848784EC90E09787868709
:1004E00080EC90E0918B808B81EC90E0938B828B01
:1004F00082EC90E0958B848B86EC90E0978B868BDA
:10050000118E128E138E148E809100018093C9017A
:100510008093C8010895789484B5826084BD84B5C1
:10052000816084BD85B5826085BD85B5816085BDEE
:1005300080916E00816080936E00109281008091A6
:10054000810082608093810080918100816080932E
:100550008100809180008160809380008091B10053
:1005600084608093B1008091B00081608093B0007E
:1005700080917A00846080937A0080917A00826012
:1005800080937A0080917A00816080937A008091D4
:100590007A00806880937A001092C100E0913B015C
:1005A000F0913C0182E08083E0913701F0913801C5
:1005B0001082E0913901F0913A0187E68083109230
:1005C0004301E0913F01F091400186E08083E0919A
:1005D0003D01F0913E01808180618083E0913D0189
:1005E000F0913E01808188608083E0913D01F0912F
:1005F0003E01808180688083E0913D01F0913E0161
:1006000080818F7D8083CCE9D0E0FE01249108E8D1
:1006100010E0F80184918823C9F090E0880F991FB9
:10062000FC01EE58FF4FA591B491FC01E859FF4F32
:10063000459154919FB7F8943C91822F80958323E4
:100640008C93FA018081282B20839FBF90EBC92EC9
:1006500090E0D92EBB24B39420E0E22E20E0F22ECD
:100660002FB7F8948091230190912401A091250146
:10067000B09126012FBF4091270150912801609130
:10068000290170912A01841B950BA60BB70B8739A2
:100690009105A105B10508F452C0F6018491FE014F
:1006A0009491F8012491222309F477C0882359F00A
:1006B000833009F45BC008F04EC0813009F45CC09F
:1006C000823009F45DC0E22FF0E0EE0FFF1FE45826
:1006D000FF4FA591B4918C91982331E020E009F46B
:1006E00030E0832F922F282F21702093000130912A
:1006F000C901231721F1892B59F48091C8018B2559
:100700008093C80181114CC086E191E00E9499015B
:10071000809100018093C9012FB7F8948091230143
:1007200090912401A0912501B09126012FBF8093C3
:10073000270190932801A0932901B0932A01E11485
:10074000F10409F48DCF0E94F600882309F488CFC4
:100750000E94000085CF8730B1F08830D1F084301E
:1007600009F0B1CF809180008F7D03C0809180001F
:100770008F7780938000A7CF84B58F7784BDA3CF78
:1007800084B58F7DFBCF8091B0008F778093B000D0
:100790009ACF8091B0008F7DF9CF90E080E0A3CF19
:1007A00089E191E0B3CFEE0FFF1F0590F491E02DAA
:1007B0000994F894FFCF01000000002C018C00B9CF
:1007C000007901EA00C800DC000D0A004F4E004F1E
:0407D0004646000099
:107E0000112484B714BE81FFF0D085E080938100F7
:107E100082E08093C00088E18093C10086E0809377
:107E2000C20080E18093C4008EE0C9D0259A86E02C
:107E300020E33CEF91E0309385002093840096BBD3
:107E4000B09BFECF1D9AA8958150A9F7CC24DD24C4
:107E500088248394B5E0AB2EA1E19A2EF3E0BF2EE7
:107E6000A2D0813461F49FD0082FAFD0023811F036
:107E7000013811F484E001C083E08DD089C08234E0
:107E800011F484E103C0853419F485E0A6D080C0E4
:107E9000853579F488D0E82EFF2485D0082F10E0AE
:107EA000102F00270E291F29000F111F8ED06801E7
:107EB0006FC0863521F484E090D080E0DECF843638
:107EC00009F040C070D06FD0082F6DD080E0C81688
:107ED00080E7D80618F4F601B7BEE895C0E0D1E017
:107EE00062D089930C17E1F7F0E0CF16F0E7DF06D8
:107EF00018F0F601B7BEE89568D007B600FCFDCFD4
:107F0000A601A0E0B1E02C9130E011968C91119780
:107F100090E0982F8827822B932B1296FA010C0160
:107F200087BEE89511244E5F5F4FF1E0A038BF0790
:107F300051F7F601A7BEE89507B600FCFDCF97BE46
:107F4000E89526C08437B1F42ED02DD0F82E2BD052
:107F50003CD0F601EF2C8F010F5F1F4F84911BD097
:107F6000EA94F801C1F70894C11CD11CFA94CF0C13
:107F7000D11C0EC0853739F428D08EE10CD085E9AC
:107F80000AD08FE07ACF813511F488E018D01DD067
:107F900080E101D065CF982F8091C00085FFFCCF94
:107FA0009093C60008958091C00087FFFCCF809118
:107FB000C00084FD01C0A8958091C6000895E0E648
:107FC000F0E098E1908380830895EDDF803219F02E
:107FD00088E0F5DFFFCF84E1DECF1F93182FE3DFCA
:107FE0001150E9F7F2DF1F91089580E0E8DFEE27F6
:047FF000FF270994CA
:027FFE00040479
:00000001FF
