:100000000C9453000C947B000C947B000C947B00AC
:100010000C947B000C947B000C947B000C947B0074
:100020000C947B000C947B000C947B000C947B0064
:100030000C947B000C947B000C947B000C947B0054
:100040000C94FD010C947B000C94CB010C94A50145
:100050000C947B000C947B000C947B000C947B0034
:100060000C947B000C947B0000000000250028000D
:100070002B0000000000240027002A0004040404D0
:100080000404040402020202020203030303030342
:10009000010204081020408001020408102001021F
:1000A00004081020A00311241FBECFEFD8E0DEBF4C
:1000B000CDBF11E0A0E0B1E0EEEEF7E002C00590A8
:1000C0000D92A834B107D9F721E0A8E4B1E001C04E
:1000D0001D92A33FB207E1F710E0C3E5D0E004C0F2
:1000E0002197FE010E94EF03C235D107C9F70E9494
:1000F00047020C94F5030C940000AF92BF92CF928C
:10010000DF92EF92FF920F931F93CF93DF936C01D7
:100110007B018B01040F151FEB015E01AE18BF08B8
:10012000C017D10759F06991D601ED91FC9101906A
:10013000F081E02DC6010995892B79F7C501DF9182
:10014000CF911F910F91FF90EF90DF90CF90BF90D4
:10015000AF900895FC01538D448D252F30E0842FFE
:1001600090E0821B930B541710F0CF9608950197DF
:100170000895FC01918D828D981761F0A28DAE0FCC
:10018000BF2FB11D5D968C91928D9F5F9F73928F53
:1001900090E008958FEF9FEF0895FC01918D828D7F
:1001A000981731F0828DE80FF11D858D90E008954C
:1001B0008FEF9FEF0895FC01918D228D892F90E0A4
:1001C000805C9F4F821B91098F739927089586E564
:1001D00091E00E94DB0021E0892B09F420E0822FCE
:1001E000089580E090E0892B29F00E94E7008111BA
:1001F0000C9400000895FC01A48DA80FB92FB11D27
:10020000A35ABF4F2C91848D90E001968F7399274C
:10021000848FA689B7892C93A089B1898C9183702A
:1002200080648C93938D848D981306C00288F38923
:10023000E02D80818F7D80830895EF92FF920F9350
:100240001F93CF93DF93EC0181E0888F9B8D8C8D82
:1002500098131AC0E889F989808185FF15C09FB776
:10026000F894EE89FF896083E889F9898081837039
:10027000806480839FBF81E090E0DF91CF911F91E8
:100280000F91FF90EF900895F62E0B8D10E00F5F09
:100290001F4F0F731127E02E8C8D8E110CC00FB6DF
:1002A00007FCFACFE889F989808185FFF5CFCE0177
:1002B0000E94FB00F1CFEB8DEC0FFD2FF11DE35AF7
:1002C000FF4FF0829FB7F8940B8FEA89FB898081FA
:1002D0008062CFCFCF93DF93EC01888D8823B9F074
:1002E000AA89BB89E889F9898C9185FD03C0808141
:1002F00086FD0DC00FB607FCF7CF8C9185FFF2CFBE
:10030000808185FFEDCFCE010E94FB00E9CFDF9118
:10031000CF910895FC0101900020E9F73197AF01DA
:10032000481B590BBC0186E591E00C947D00CF93EE
:10033000DF930E948A01EC0181E291E00E948A0130
:100340008C0F9D1FDF91CF9108951F920F920FB6D2
:100350000F9211242F933F934F935F936F937F934B
:100360008F939F93AF93BF93EF93FF9386E591E0B5
:100370000E94FB00FF91EF91BF91AF919F918F91F0
:100380007F916F915F914F913F912F910F900FBE91
:100390000F901F9018951F920F920FB60F92112475
:1003A0002F938F939F93EF93FF93E0916601F091CA
:1003B00067018081E0916C01F0916D0182FD1BC0AD
:1003C000908180916F018F5F8F73209170018217F0
:1003D00041F0E0916F01F0E0EA5AFE4F958F809373
:1003E0006F01FF91EF919F918F912F910F900FBE11
:1003F0000F901F9018958081F4CF1F920F920FB627
:100400000F9211242F933F938F939F93AF93BF939A
:1004100080914D0190914E01A0914F01B0915001FA
:1004200030914C0123E0230F2D3758F50196A11D83
:10043000B11D20934C0180934D0190934E01A093E8
:100440004F01B09350018091480190914901A091D2
:100450004A01B0914B010196A11DB11D8093480145
:1004600090934901A0934A01B0934B01BF91AF9182
:100470009F918F913F912F910F900FBE0F901F90E2
:10048000189526E8230F0296A11DB11DD2CFCF9358
:10049000DF93CDB7DEB7A1970FB6F894DEBF0FBEDE
:1004A000CDBF789484B5826084BD84B5816084BDFD
:1004B00085B5826085BD85B5816085BD80916E0002
:1004C000816080936E001092810080918100826033
:1004D0008093810080918100816080938100809170
:1004E00080008160809380008091B100846080935F
:1004F000B1008091B00081608093B00080917A005B
:10050000846080937A0080917A00826080937A0080
:1005100080917A00816080937A0080917A0080686F
:1005200080937A001092C100E0916601F09167011A
:1005300082E08083E0916201F09163011082E0919A
:100540006401F091650187E6808310926E01E0916D
:100550006A01F0916B0186E08083E0916801F0917F
:100560006901808180618083E0916801F091690177
:10057000808188608083E0916801F09169018081C9
:1005800080688083E0916801F091690180818F7DAE
:100590008083EEE9F0E02491EAE8F0E0849188239A
:1005A000C9F090E0880F991FFC01EE58FF4F45916C
:1005B0005491FC01E859FF4FA591B4919FB7F8946D
:1005C000FA0180812095822380838C91E22FE82399
:1005D000EC939FBF80E4D82E9AE0892E912CA12C19
:1005E000B12C00E010E02FB7F89480914D0190916C
:1005F0004E01A0914F01B09150012FBF4091520187
:10060000509153016091540170915501841B950BD9
:10061000A60BB70B81399140A105B10508F469C05B
:10062000D0927C0080917A00806480937A008091DF
:100630007A0086FDFCCF8091780040917900542F9C
:10064000482F10925101E7E1F1E090E080E0219124
:100650003191BA01621B730B9B01225F3F4F2D3119
:10066000310508F052C08E5E9E4FFC018081809360
:100670005101209151012223E1F130E050E040E0AE
:1006800019A27E01F1E2EF0EF11CCA01B901A50128
:1006900094010E94CD03605DF70162937F012115F3
:1006A00031054105510589F7309719F0CF010E94B6
:1006B0008A0181E291E00E948A0180915101833098
:1006C000C9F148F5813071F1823089F12FB7F89482
:1006D00080914D0190914E01A0914F01B091500138
:1006E0002FBF8093520190935301A0935401B09374
:1006F00055010115110509F476CF0E94E700882302
:1007000009F471CF0E9400006ECF019685309105EB
:1007100009F09DCFAECF843081F08530B9F680E40A
:1007200091E002C084E291E00E949701CFCF8BE27A
:1007300091E0FACF82E391E0F7CF89E391E0F4CF43
:10074000E6E5F1E01382128288EE93E0A0E0B0E0EB
:1007500084839583A683B78384E091E0918380832B
:1007600085EC90E09587848784EC90E09787868776
:1007700080EC90E0918B808B81EC90E0938B828B6E
:1007800082EC90E0958B848B86EC90E0978B868B47
:10079000118E128E138E148E0895A1E21A2EAA1BAA
:1007A000BB1BFD010DC0AA1FBB1FEE1FFF1FA21721
:1007B000B307E407F50720F0A21BB30BE40BF50B1E
:1007C000661F771F881F991F1A9469F760957095A7
:1007D000809590959B01AC01BD01CF010895EE0F6E
:0E07E000FF1F0590F491E02D0994F894FFCFCF
:1007EE00000000001D017D00AA006A01DB00B900B7
:1007FE00CD000102030405CC00FF005501FF01FFEF
:10080E00030D0A004D656E752031004D656E752025
:10081E0032004D656E752033004D656E75203400C7
:08082E004D656E7520350000D8
:00000001FF
