:100000000C945C000C946E000C946E000C946E00CA
:100010000C946E000C946E000C946E000C946E00A8
:100020000C946E000C946E000C946E000C946E0098
:100030000C946E000C946E000C946E000C946E0088
:100040000C9470000C946E000C946E000C946E0076
:100050000C946E000C946E000C946E000C946E0068
:100060000C946E000C946E00000000002400270029
:100070002A0000000000250028002B0004040404CE
:100080000404040402020202020203030303030342
:10009000010204081020408001020408102001021F
:1000A00004081020000000080002010000030407FB
:1000B000000000000000000011241FBECFEFD8E0B8
:1000C000DEBFCDBF21E0A0E0B1E001C01D92A131B3
:1000D000B207E1F70E94BA000C94F4010C940000FE
:1000E0001F920F920FB60F9211242F933F938F936D
:1000F0009F93AF93BF938091050190910601A091CA
:100100000701B09108013091040123E0230F2D373E
:1001100058F50196A11DB11D20930401809305019E
:1001200090930601A0930701B0930801809100010C
:1001300090910101A0910201B09103010196A11DCE
:10014000B11D8093000190930101A0930201B0932F
:100150000301BF91AF919F918F913F912F910F908C
:100160000FBE0F901F90189526E8230F0296A11D31
:10017000B11DD2CF789484B5826084BD84B581608E
:1001800084BD85B5826085BD85B5816085BD809162
:100190006E00816080936E001092810080918100DA
:1001A00082608093810080918100816080938100D2
:1001B000809180008160809380008091B100846094
:1001C0008093B1008091B00081608093B0008091F5
:1001D0007A00846080937A0080917A0082608093B4
:1001E0007A0080917A00816080937A0080917A0011
:1001F000806880937A001092C100EEE9F0E02491CB
:10020000EAE8F0E084918823C1F090E0880F991F1C
:10021000FC01E859FF4FC591D491FC01EE58FF4F06
:10022000A591B4919FB7F8948881E22FE0958E2331
:1002300088838C91E823EC939FBFC9E9D0E0FE014D
:10024000249105E810E0F8018491882399F090E06A
:10025000880F991FFC01E859FF4FA591B491FC014B
:10026000EE58FF4F859194918FB7F8949C91292B6C
:100270002C938FBF20E4922E3DEAC32E30E0D32E84
:1002800040E0E42E40E0F42EAA24A394B12C9092F6
:100290007C0080917A00806480937A0080917A005B
:1002A00086FDFCCF9091780080917900892798276E
:1002B00089279093100180930F018FB7F894409194
:1002C00005015091060160910701709108018FBFEF
:1002D00080910F0190911001092E000CAA0BBB0B0D
:1002E00040900B0150900C0160900D0170900E0138
:1002F000840D951DA61DB71D84179507A607B70782
:1003000008F042C08091090190910A01892B09F0FF
:1003100042C0B0920A01A09209012FB7F8948091CF
:10032000050190910601A0910701B09108012FBF2E
:1003300080930B0190930C01A0930D01B0930E01DB
:10034000F6019491FE018491F80134913323E1F098
:1003500020910901992339F0933061F108F591302A
:1003600079F1923089F1E32FF0E0EE0FFF1FEE58A4
:10037000FF4FA591B4919FB7F894211132C02C91F1
:10038000809582238C939FBFE114F10409F47FCF01
:100390000E9400007CCF10920A0110920901BDCF8B
:1003A0009730A9F09830C9F09430E9F69091800028
:1003B0009F7D03C0909180009F7790938000D3CF62
:1003C00094B59F7794BDCFCF94B59F7DFBCF90918F
:1003D000B0009F779093B000C6CF9091B0009F7D02
:0C03E000F9CF2C91822BCECFF894FFCFE8
:00000001FF
