:100000000C9463000C948B000C948B000C948B006C
:100010000C948B000C948B000C948B000C948B0034
:100020000C948B000C948B000C948B000C948B0024
:100030000C948B000C948B000C948B000C948B0014
:100040000C940B020C948B000C94D9010C94B3010A
:100050000C948B000C948B000C948B000C948B00F4
:100060000C948B000C948B000000000025002800ED
:100070002B0000000000240027002A0000000000E0
:1000800023002600290004040404040404040202DA
:100090000202020203030303030301020408102007
:1000A0004080010204081020010204081020000012
:1000B0000008000201000003040700000000000027
:1000C00000009E02880411241FBECFEFD8E0DEBFDF
:1000D000CDBF22E0A6E5B1E001C01D92A132B2077A
:1000E000E1F711E0A0E0B1E0ECEAFDE002C005902C
:1000F0000D92A635B107D9F710E0C2E6D0E004C0F2
:100100002197FE010E94D104C136D107C9F70E9490
:10011000E6020C94C9060C940000AF92BF92CF92F5
:10012000DF92EF92FF920F931F93CF93DF936C01B7
:100130007B018B01040F151FEB015E01AE18BF0898
:10014000C017D10759F06991D601ED91FC9101904A
:10015000F081E02DC6010995892B79F7C501DF9162
:10016000CF911F910F91FF90EF90DF90CF90BF90B4
:10017000AF900895CF93DF93FC0144815581608156
:10018000718187E691E00E948D00EC0142E050E031
:100190006AE171E087E691E00E948D008C0F9D1F5F
:1001A000DF91CF910895FC01538D448D252F30E0D0
:1001B000842F90E0821B930B541710F0CF96089574
:1001C00001970895FC01918D828D981761F0A28DA1
:1001D000AE0FBF2FB11D5D968C91928D9F5F9F7367
:1001E000928F90E008958FEF9FEF0895FC01918D1D
:1001F000828D981731F0828DE80FF11D858D90E08A
:1002000008958FEF9FEF0895FC01918D228D892F26
:1002100090E0805C9F4F821B91098F73992708950E
:1002200087E691E00E94040121E0892B09F420E097
:10023000822F089580E090E0892B29F00E94100120
:1002400081110C9400000895FC01A48DA80FB92F12
:10025000B11DA35ABF4F2C91848D90E001968F73EE
:100260009927848FA689B7892C93A089B1898C910D
:10027000837080648C93938D848D981306C002885C
:10028000F389E02D80818F7D80830895EF92FF9226
:100290000F931F93CF93DF93EC0181E0888F9B8DA9
:1002A0008C8D98131AC0E889F989808185FF15C063
:1002B0009FB7F894EE89FF896083E889F989808186
:1002C0008370806480839FBF81E090E0DF91CF9155
:1002D0001F910F91FF90EF900895F62E0B8D10E077
:1002E0000F5F1F4F0F731127E02E8C8D8E110CC0E6
:1002F0000FB607FCFACFE889F989808185FFF5CF31
:10030000CE010E942401F1CFEB8DEC0FFD2FF11DEA
:10031000E35AFF4FF0829FB7F8940B8FEA89FB896D
:1003200080818062CFCFCF93DF93EC01888D8823CB
:10033000B9F0AA89BB89E889F9898C9185FD03C048
:10034000808186FD0DC00FB607FCF7CF8C9185FF2D
:10035000F2CF808185FFEDCFCE010E942401E9CF4D
:10036000DF91CF9108951F920F920FB60F92112433
:100370002F933F934F935F936F937F938F939F93AD
:10038000AF93BF93EF93FF9387E691E00E94240120
:10039000FF91EF91BF91AF919F918F917F916F915D
:1003A0005F914F913F912F910F900FBE0F901F9033
:1003B00018951F920F920FB60F9211242F938F93BF
:1003C0009F93EF93FF93E0917701F0917801808103
:1003D000E0917D01F0917E0182FD1BC090818091B2
:1003E00080018F5F8F7320918101821741F0E0912E
:1003F0008001F0E0E959FE4F958F80938001FF91D5
:10040000EF919F918F912F910F900FBE0F901F90A2
:1004100018958081F4CF1F920F920FB60F9211247E
:100420002F933F938F939F93AF93BF9380915B01E3
:1004300090915C01A0915D01B0915E0130915A01F3
:1004400023E0230F2D3758F50196A11DB11D2093F0
:100450005A0180935B0190935C01A0935D01B0937E
:100460005E018091560190915701A0915801B09181
:1004700059010196A11DB11D80935601909357011A
:10048000A0935801B0935901BF91AF919F918F9163
:100490003F912F910F900FBE0F901F90189526E857
:1004A000230F0296A11DB11DD2CFEF92FF920F93A1
:1004B0001F93CF93DF93EC017B01198218821B827B
:1004C0001A821D821C82FB0101900020E9F73197FE
:1004D0008F01061B170BB8016F5F7F4F90E080E024
:1004E0000E94FC050097B9F0998388831B830A83D7
:1004F0002C813D81232B11F4FC0110821D830C8380
:10050000B70188819981DF91CF911F910F91FF9061
:10051000EF900C94C20688819981009711F00E9497
:100520007305198218821D821C821B821A82DF9138
:10053000CF911F910F91FF90EF900895E7E6F1E0C2
:100540001382128288EE93E0A0E0B0E0848395836A
:10055000A683B7838CE091E09183808385EC90E063
:100560009587848784EC90E09787868780EC90E07D
:10057000918B808B81EC90E0938B828B82EC90E06E
:10058000958B848B86EC90E0978B868B118E128EE8
:10059000138E148E8091010180931C026DE171E035
:1005A00084E092E00E94550268E271E08AE092E005
:1005B0000E94550267E371E080E192E00E945502DB
:1005C00069E471E086E192E00C945502789484B578
:1005D000826084BD84B5816084BD85B5826085BD3F
:1005E00085B5816085BD80916E00816080936E00CD
:1005F00010928100809181008260809381008091BF
:10060000810081608093810080918000816080936F
:1006100080008091B10084608093B1008091B0002F
:1006200081608093B00080917A00846080937A002A
:1006300080917A00826080937A0080917A00816054
:1006400080937A0080917A00806880937A0010927B
:10065000C100E0917701F091780182E08083E09120
:100660007301F09174011082E0917501F0917601AF
:1006700087E6808310927F01E0917B01F0917C01FD
:1006800086E08083E0917901F0917A018081806138
:100690008083E0917901F0917A0180818860808384
:1006A000E0917901F0917A01808180688083E09106
:1006B0007901F0917A0180818F7D8083CCE9D0E04F
:1006C000FE01249108E810E0F80184918823C9F024
:1006D00090E0880F991FFC01EE58FF4FA591B4914F
:1006E000FC01E859FF4F459154919FB7F8943C9114
:1006F000822F809583238C93FA018081282B20837D
:100700009FBF90EBC92E90E0D92E20E0E22E20E092
:10071000F22EBB24B39432E0A32E43E0942E2FB7E5
:10072000F89480915B0190915C01A0915D01B09182
:100730005E012FBF4091630150916401609165019A
:1007400070916601841B950BA60BB70B8739910539
:10075000A105B10508F476C0F6018491FE019491DB
:10076000F8012491222309F49BC0882359F0833097
:1007700009F47FC008F072C0813009F480C0823073
:1007800009F481C0E22FF0E0EE0FFF1FE458FF4FA5
:10079000A591B4918C91982331E020E009F430E0E8
:1007A000832F922F282F21702093010130911C025A
:1007B000231709F447C02FB7892B09F496C0F89482
:1007C00080915B0190915C01A0915D01B0915E010F
:1007D0002FBF40915F015091600160916101709164
:1007E0006201841B950BA60BB70B8031F7E29F07C4
:1007F000A105B10508F457C0909200018091000155
:10080000813009F469C008F462C0823009F467C01D
:10081000833009F467C08091010180931C022FB7D7
:10082000F89480915B0190915C01A0915D01B09181
:100830005E012FBF8093630190936401A0936501D3
:10084000B0936601E114F10409F469CF0E9410012C
:10085000882309F464CF0E94000061CF8730B1F093
:100860008830D1F0843009F08DCF809180008F7D69
:1008700003C0809180008F778093800083CF84B500
:100880008F7784BD7FCF84B58F7DFBCF8091B00003
:100890008F778093B00076CF8091B0008F7DF9CFB5
:1008A00090E080E07FCF883823E19207A105B10571
:1008B00018F0A0920001A2CF883B9B40A105B10592
:1008C00018F0B09200019ACF1092000197CF84E007
:1008D00092E00E94BA009FCF8AE092E0FACF80E1D6
:1008E00092E0F7CF86E192E0F4CFF89480915B013B
:1008F00090915C01A0915D01B0915E012FBF80934A
:100900005F0190936001A0936101B093620183CF76
:10091000CF93DF93CCE1D2E026978881998100972D
:1009200011F00E94730582E0C430D807A9F7DF9167
:10093000CF9108952F923F924F925F926F927F9244
:100940008F929F92AF92BF92CF92DF92EF92FF92DF
:100950000F931F93CF93DF93CDB7DEB7CA1BDB0B8B
:100960000FB6F894DEBF0FBECDBF09942A88398830
:1009700048885F846E847D848C849B84AA84B98437
:10098000C884DF80EE80FD800C811B81AA81B98143
:10099000CE0FD11D0FB6F894DEBF0FBECDBFED0157
:1009A0000895EE0FFF1F0590F491E02D09940F9329
:1009B0001F93CF93DF938230910510F482E090E093
:1009C000E0911F02F091200230E020E0B0E0A0E0D2
:1009D000309799F42115310509F44AC0281B390BC9
:1009E00024303105D8F58A819B816115710589F123
:1009F000FB0193838283FE0111C0408151810281FA
:100A0000138148175907E0F04817590799F41097D0
:100A100061F012960C93129713961C933296CF01A5
:100A2000DF91CF911F910F91089500931F021093B2
:100A30002002F4CF2115310551F04217530738F049
:100A4000A901DB019A01BD01DF01F801C1CFEF016E
:100A5000F9CF9093200280931F02CDCFFE01E20FC9
:100A6000F31F819391932250310939832883D7CF83
:100A700020911D0230911E02232B41F4209104018C
:100A80003091050130931E0220931D022091020136
:100A9000309103012115310541F42DB73EB7409146
:100AA000060150910701241B350BE0911D02F091C6
:100AB0001E02E217F307A0F42E1B3F0B281739077D
:100AC00078F0AC014E5F5F4F2417350748F04E0FAA
:100AD0005F1F50931E0240931D02819391939FCFFD
:100AE000F0E0E0E09CCFCF93DF930097E9F0FC01CA
:100AF000329713821282A0911F02B0912002ED0161
:100B000030E020E01097A1F420813181820F931F03
:100B100020911D0230911E022817390709F061C08B
:100B2000F0931E02E0931D02DF91CF910895EA0138
:100B3000CE17DF07E8F54A815B819E01411551051B
:100B4000B1F7E901FB83EA8349915991C40FD51F9D
:100B5000EC17FD0761F4808191810296840F951F47
:100B6000E90199838883828193819B838A83F0E062
:100B7000E0E012968D919C9113970097B9F52D9115
:100B80003C911197CD010296820F931F20911D0277
:100B900030911E022817390739F6309751F5109217
:100BA000200210921F02B0931E02A0931D02BCCF20
:100BB000D383C28340815181840F951FC817D90701
:100BC00061F44E5F5F4F88819981480F591F5183AF
:100BD00040838A819B81938382832115310509F0AB
:100BE000B0CFF0932002E0931F029ECFFD01DC0105
:100BF000C0CF13821282D7CFB0E0A0E0E2E0F6E0EF
:100C00000C949C048C01009751F4CB010E94D704F2
:100C10008C01C801CDB7DEB7E0E10C94B804FC014B
:100C2000E60FF71F9C0122503109E217F30708F481
:100C30009DC0D901CD91DC911197C617D70798F0C7
:100C4000C530D10530F3CE0104978617970708F316
:100C5000C61BD70B2297C193D1936D937C93CF0181
:100C60000E947305D6CF5B01AC1ABD0A4C018C0EF5
:100C70009D1EA0911F02B0912002512C412CF12CFD
:100C8000E12C109731F580911D0290911E0288157C
:100C9000990509F05CC04616570608F058C08091C7
:100CA000020190910301009741F48DB79EB74091E6
:100CB000060150910701841B950BE817F90708F00E
:100CC00055C0F0931E02E0931D02F9017183608309
:100CD000A0CF8D919C91119712966C9012971396BC
:100CE0007C901397A815B90559F56C0142E0C40E24
:100CF000D11CCA14DB0420F1AC014A195B09DA01EA
:100D00001296159780F06282738251834083D901D5
:100D10006D937C93E114F10471F0D7011396FC9369
:100D2000EE93129776CF22968C0F9D1FF901918337
:100D30008083F301EFCFF0932002E0931F0269CF8D
:100D40004816590608F42C017D01D3019ACFCB0136
:100D50000E94D7047C01009749F0AE01B8010E94BF
:100D6000B906C8010E947305870153CF10E000E067
:100D700050CFFB01DC0102C001900D924150504068
:100D8000D8F70895FB01DC0101900D920020E1F7F6
:100D9000089510E0C2E6D0E004C0FE010E94D10434
:0C0DA0002196C336D107C9F7F894FFCFA5
:100DAC0003010000210280000000000046018D00BC
:100DBC00D30093010401E200F6000D0A004D656EAC
:100DCC0075205574616D61004D656E752031205331
:100DDC00657474696E67004D656E75203220496EBE
:100DEC007075742044617461004D656E75203320FC
:060DFC0045786974000057
:00000001FF
