:020000040000FA
:100000000C945D000C9485000C9485000C94850084
:100010000C9485000C9485000C9485000C9485004C
:100020000C9485000C9485000C9485000C9485003C
:100030000C9485000C9485000C9485000C9485002C
:100040000C9453020C9485000C9421020C94FB0137
:100050000C9485000C9485000C9485000C9485000C
:100060000C9485000C94850000000008000201003B
:100070000003040700000000000000000000000072
:10008000250028002B0000000000240027002A0083
:10009000040404040404040402020202020203032E
:1000A0000303030301020408102040800102040836
:1000B0001020010204081020570411241FBECFEFA6
:1000C000D8E0DEBFCDBF11E0A0E0B1E0ECE5F9E0A3
:1000D00002C005900D92AA3BB107D9F722E0AAEB26
:1000E000B1E001C01D92AA36B207E1F710E0CDE5FC
:1000F000D0E004C02197FE010E94A604CC35D107B0
:10010000C9F70E949D020C94AC040C940000AF92BD
:10011000BF92CF92DF92EF92FF920F931F93CF93F4
:10012000DF936C017B018B01040F151FEB015E0156
:10013000AE18BF08C017D10759F06991D601ED91EB
:10014000FC910190F081E02DC6010995892B79F78A
:10015000C501DF91CF911F910F91FF90EF90DF903C
:10016000CF90BF90AF900895FC01538D448D252F03
:1001700030E0842F90E0821B930B541710F0CF9641
:10018000089501970895FC01918D828D981761F073
:10019000A28DAE0FBF2FB11D5D968C91928D9F5F8A
:1001A0009F73928F90E008958FEF9FEF0895FC0169
:1001B000918D828D981731F0828DE80FF11D858D1C
:1001C00090E008958FEF9FEF0895FC01918D228DAF
:1001D000892F90E0805C9F4F821B91098F73992734
:1001E00008958DEC91E00E94E50021E0892B09F44F
:1001F00020E0822F089580E090E0892B29F00E9472
:10020000F10081110C9400000895FC01A48DA80F49
:10021000B92FB11DA35ABF4F2C91848D90E0019648
:100220008F739927848FA689B7892C93A089B18968
:100230008C91837080648C93938D848D981306C009
:100240000288F389E02D80818F7D80830895EF926D
:10025000FF920F931F93CF93DF93EC0181E0888F80
:100260009B8D8C8D98131AC0E889F989808185FF50
:1002700015C09FB7F894EE89FF896083E889F989F2
:1002800080818370806480839FBF81E090E0DF91F4
:10029000CF911F910F91FF90EF900895F62E0B8D47
:1002A00010E00F5F1F4F0F731127E02E8C8D8E1102
:1002B0000CC00FB607FCFACFE889F989808185FF69
:1002C000F5CFCE010E940501F1CFEB8DEC0FFD2F94
:1002D000F11DE35AFF4FF0829FB7F8940B8FEA8924
:1002E000FB8980818062CFCFCF93DF93EC01888D33
:1002F0008823B9F0AA89BB89E889F9898C9185FDA1
:1003000003C0808186FD0DC00FB607FCF7CF8C912E
:1003100085FFF2CF808185FFEDCFCE010E940501E0
:10032000E9CFDF91CF91089590E0FC01E859FF4FAC
:100330002491FC01EC55FF4F3491FC01E057FF4F35
:10034000E491EE23C9F0222339F0233001F1A8F41F
:10035000213019F1223029F1F0E0EE0FFF1FE458AF
:10036000FF4FA591B4918FB7F894EC91611126C01D
:1003700030953E233C938FBF08952730A9F0283055
:10038000C9F0243049F7809180008F7D03C08091AF
:1003900080008F7780938000DFCF84B58F7784BD16
:1003A000DBCF84B58F7DFBCF8091B0008F778093BA
:1003B000B000D2CF8091B0008F7DF9CF3E2BDACF45
:1003C000FC0101900020E9F73197AF01481B590B60
:1003D000BC018DEC91E00C948700CF93DF930E94D9
:1003E000E001EC0186E291E00E94E0018C0F9D1F8C
:1003F000DF91CF9108951F920F920FB60F921124A3
:100400002F933F934F935F936F937F938F939F931C
:10041000AF93BF93EF93FF938DEC91E00E940501A2
:10042000FF91EF91BF91AF919F918F917F916F91CC
:100430005F914F913F912F910F900FBE0F901F90A2
:1004400018951F920F920FB60F9211242F938F932E
:100450009F93EF93FF93E091DD01F091DE018081A6
:10046000E091E301F091E40182FD1BC09081809155
:10047000E6018F5F8F732091E701821741F0E091D1
:10048000E601F0E0E353FE4F958F8093E601FF9184
:10049000EF919F918F912F910F900FBE0F901F9012
:1004A00018958081F4CF1F920F920FB60F921124EE
:1004B0002F933F938F939F93AF93BF938091BF01EF
:1004C0009091C001A091C101B091C2013091BE01D3
:1004D00023E0230F2D3758F50196A11DB11D209360
:1004E000BE018093BF019093C001A093C101B0935E
:1004F000C2018091BA019091BB01A091BC01B09161
:10050000BD010196A11DB11D8093BA019093BB015D
:10051000A093BC01B093BD01BF91AF919F918F910A
:100520003F912F910F900FBE0F901F90189526E8C6
:10053000230F0296A11DB11DD2CFCF93DF93CDB76C
:10054000DEB7A1970FB6F894DEBF0FBECDBF78948B
:1005500084B5826084BD84B5816084BD85B58260C8
:1005600085BD85B5816085BD80916E008160809379
:100570006E001092810080918100826080938100E2
:1005800080918100816080938100809180008160F2
:10059000809380008091B10084608093B10080914D
:1005A000B00081608093B00080917A008460809375
:1005B0007A0080917A00826080937A0080917A003C
:1005C000816080937A0080917A00806880937A00BD
:1005D0001092C100E091DD01F091DE0182E08083A4
:1005E000E091D901F091DA011082E091DB01F09104
:1005F000DC0187E680831092E501E091E101F09152
:10060000E20186E08083E091DF01F091E0018081EA
:1006100080618083E091DF01F091E001808188605A
:100620008083E091DF01F091E00180818068808328
:10063000E091DF01F091E00180818F7D8083E2EB2A
:10064000F0E02491EEE9F0E084918823C9F090E095
:10065000880F991FFC01EA57FF4F45915491FC0107
:10066000E458FF4FA591B4919FB7F894FA018081A7
:100670002095822380838C91E22FE823EC939FBF07
:1006800002E111E057E1E52E51E0F52ED8018D9100
:100690008D01282F30E0F901EC55FF4F9491205740
:1006A0003F4FF9012491222399F030E0220F331FAC
:1006B000F901EA57FF4FA591B491F901E458FF4FB2
:1006C000259134912FB7F894EC919E2B9C932FBFDA
:1006D00060E00E949401E016F106C1F680E4B82EB5
:1006E0009AE0492E512C612C712C20E0C22E20E082
:1006F000D22E2FB7F8948091BF019091C001A091A4
:10070000C101B091C2012FBF4091C9015091CA01EE
:100710006091CB017091CC01841B950BA60BB70B9C
:1007200081399140A105B10508F481C0B0927C00E7
:1007300080917A00806480937A0080917A0086FDAF
:10074000FCCF8091780040917900542F482F10926F
:10075000C801ECE1F1E090E080E021913191BA0133
:10076000621B730B9B01225F3F4F2D31310508F057
:100770006AC0895E9E4FDC018C918093C8012091F4
:10078000C801222309F453C030E050E040E019A230
:100790008E010F5D1F4FCA01B901A30192010E9492
:1007A0008404605DF80162938F01211531054105D4
:1007B000510589F7309719F0CF010E94E00186E2D8
:1007C00091E00E94E0018091C8010FEF080F10E056
:1007D00098012D533E4F7901D9019C9121E091114F
:1007E00020E0F7012083833009F44EC090F581307A
:1007F000C9F1823009F440C0F801EE5EFE4FD70126
:100800006C9180810E9494012FB7F8948091BF0170
:100810009091C001A091C101B091C2012FBF8093FE
:10082000C9019093CA01A093CB01B093CC01C1142C
:10083000D10409F45ECF0E94F100882309F459CF56
:100840000E94000056CF01968530910509F085CFB2
:1008500096CF843009F1853079F6911125C08DE964
:1008600091E004C0911105C089E291E00E94ED0180
:10087000C3CF88E391E0FACF911103C086E491E001
:10088000F5CF85E591E0F2CF911103C083E691E0C9
:10089000EDCF82E791E0EACF911103C080E891E0CB
:1008A000E5CF8FE891E0E2CF8CEA91E0DFCFEDEC8D
:1008B000F1E01382128288EE93E0A0E0B0E084833E
:1008C0009583A683B78384E091E09183808385EC50
:1008D00090E09587848784EC90E09787868780EC0A
:1008E00090E0918B808B81EC90E0938B828B82ECFB
:1008F00090E0958B848B86EC90E0978B868B118EA5
:10090000128E138E148E0895A1E21A2EAA1BBB1B01
:10091000FD010DC0AA1FBB1FEE1FFF1FA217B307CB
:10092000E407F50720F0A21BB30BE40BF50B661FE1
:10093000771F881F991F1A9469F7609570958095A5
:1009400090959B01AC01BD01CF010895EE0FFF1FF3
:100950000590F491E02D0994F894FFCF0000000079
:1009600027018700B4007401E500C300D70002032B
:100970000405060102030405CC00FF005501FF0138
:10098000FF030D0A004E79616C616B616E204C456E
:10099000442031004D6174696B616E204C454420E8
:1009A00031004E79616C616B616E204C45442032A0
:1009B000004D6174696B616E204C45442032004EDD
:1009C00079616C616B616E204C45442033004D6150
:1009D00074696B616E204C45442033004E79616C24
:1009E000616B616E204C45442034004D6174696B2D
:1009F000616E204C45442034004E79616C616B611E
:100A00006E204C45442035004D6174696B616E2049
:060A10004C4544203500B6
:107E0000112484B714BE81FFF0D085E080938100F7
:107E100082E08093C00088E18093C10086E0809377
:107E2000C20080E18093C4008EE0C9D0259A86E02C
:107E300020E33CEF91E0309385002093840096BBD3
:107E4000B09BFECF1D9AA8958150A9F7CC24DD24C4
:107E500088248394B5E0AB2EA1E19A2EF3E0BF2EE7
:107E6000A2D0813461F49FD0082FAFD0023811F036
:107E7000013811F484E001C083E08DD089C08234E0
:107E800011F484E103C0853419F485E0A6D080C0E4
:107E9000853579F488D0E82EFF2485D0082F10E0AE
:107EA000102F00270E291F29000F111F8ED06801E7
:107EB0006FC0863521F484E090D080E0DECF843638
:107EC00009F040C070D06FD0082F6DD080E0C81688
:107ED00080E7D80618F4F601B7BEE895C0E0D1E017
:107EE00062D089930C17E1F7F0E0CF16F0E7DF06D8
:107EF00018F0F601B7BEE89568D007B600FCFDCFD4
:107F0000A601A0E0B1E02C9130E011968C91119780
:107F100090E0982F8827822B932B1296FA010C0160
:107F200087BEE89511244E5F5F4FF1E0A038BF0790
:107F300051F7F601A7BEE89507B600FCFDCF97BE46
:107F4000E89526C08437B1F42ED02DD0F82E2BD052
:107F50003CD0F601EF2C8F010F5F1F4F84911BD097
:107F6000EA94F801C1F70894C11CD11CFA94CF0C13
:107F7000D11C0EC0853739F428D08EE10CD085E9AC
:107F80000AD08FE07ACF813511F488E018D01DD067
:107F900080E101D065CF982F8091C00085FFFCCF94
:107FA0009093C60008958091C00087FFFCCF809118
:107FB000C00084FD01C0A8958091C6000895E0E648
:107FC000F0E098E1908380830895EDDF803219F02E
:107FD00088E0F5DFFFCF84E1DECF1F93182FE3DFCA
:107FE0001150E9F7F2DF1F91089580E0E8DFEE27F6
:047FF000FF270994CA
:027FFE00040479
:00000001FF
