:100000000C945C000C9479000C9479000C947900A9
:100010000C9479000C9479000C9479000C9479007C
:100020000C9479000C9479000C9479000C9479006C
:100030000C9479000C9479000C9479000C9479005C
:100040000C941A010C9479000C9479000C947900AA
:100050000C9479000C9479000C9479000C9479003C
:100060000C9479000C947900000000002400270013
:100070002A0000000000250028002B0004040404CE
:100080000404040402020202020203030303030342
:10009000010204081020408001020408102001021F
:1000A00004081020000000080002010000030407FB
:1000B000000000000000000011241FBECFEFD8E0B8
:1000C000DEBFCDBF11E0A0E0B1E0ECE1F4E002C0A2
:1000D00005900D92A230B107D9F721E0A2E0B1E07E
:1000E00001C01D92AB30B207E1F70E9464010C948D
:1000F0000C020C940000ECEAF0E02491E8E9F0E056
:100100009491E4E8F0E0E491EE23C9F0222339F081
:10011000233001F1A8F4213019F1223029F1F0E067
:10012000EE0FFF1FEE58FF4FA591B4912FB7F89433
:10013000EC91811126C090959E239C932FBF08952A
:100140002730A9F02830C9F0243049F720918000E9
:100150002F7D03C0209180002F7720938000DFCF78
:1001600024B52F7724BDDBCF24B52F7DFBCF209185
:10017000B0002F772093B000D2CF2091B0002F7D18
:10018000F9CF9E2BDACF3FB7F89480910701909179
:100190000801A0910901B0910A0126B5A89B05C0EC
:1001A0002F3F19F00196A11DB11D3FBFBA2FA92FF6
:1001B000982F8827BC01CD01620F711D811D911DF3
:1001C00042E0660F771F881F991F4A95D1F708955F
:1001D0008F929F92AF92BF92CF92DF92EF92FF9257
:1001E0004B015C010E94C3006B017C010E94C300B3
:1001F0006C197D098E099F09683E73408105910540
:10020000A8F321E0821A9108A108B10888EEC80E6F
:1002100083E0D81EE11CF11C81149104A104B104F7
:1002200029F7FF90EF90DF90CF90BF90AF909F9015
:100230008F9008951F920F920FB60F9211242F9353
:100240003F938F939F93AF93BF93809103019091BE
:100250000401A0910501B09106013091020123E053
:10026000230F2D3758F50196A11DB11D20930201D2
:100270008093030190930401A0930501B0930601BC
:100280008091070190910801A0910901B0910A01A4
:100290000196A11DB11D8093070190930801A093C1
:1002A0000901B0930A01BF91AF919F918F913F9146
:1002B0002F910F900FBE0F901F90189526E8230FD7
:1002C0000296A11DB11DD2CF789484B5826084BD01
:1002D00084B5816084BD85B5826085BD85B581604A
:1002E00085BD80916E00816080936E0010928100C8
:1002F0008091810082608093810080918100816083
:100300008093810080918000816080938000809143
:10031000B10084608093B1008091B00081608093CF
:10032000B00080917A00846080937A0080917A0096
:10033000826080937A0080917A00816080937A0055
:1003400080917A00806880937A001092C100E8E979
:10035000F0E02491E4E8F0E08491882399F090E0C3
:10036000880F991FFC01E859FF4FA591B491FC013A
:10037000EE58FF4F859194918FB7F894EC91E22B52
:10038000EC938FBF00E010E0C0910001D09101011B
:100390001C161D06CCF481E00E947B0064EF71E026
:1003A00080E090E00E94E80080E00E947B0064EF23
:1003B00071E080E090E00E94E800C456D109D0933B
:1003C0000101C0930001E0CFC0910001D091010173
:1003D000C83E83E0D807CCF481E00E947B0064E64D
:1003E00070E080E090E00E94E80080E00E947B00E6
:1003F00064E670E080E090E00E94E800CC59DF4FB6
:10040000D0930101C0930001DFCF0115110509F45C
:0C041000BBCF0E940000B8CFF894FFCFD3
:02041C00E803F3
:00000001FF
